:020000040800F2
:1000000000000220E9110008450500084705000826
:10001000490500084B0500084D05000800000000D8
:100020000000000000000000000000004F05000874
:1000300051050008000000005305000855050008A0
:100040003912000839120008391200083912000864
:100050003912000839120008391200083912000854
:100060003912000839120008391200083912000844
:100070003912000839120008391200083912000834
:100080003912000839120008391200083912000824
:100090003912000839120008391200083912000814
:1000A0003912000839120008391200083912000804
:1000B00039120008391200083912000839120008F4
:1000C00039120008391200083912000839120008E4
:1000D00039120008391200083912000839120008D4
:1000E00039120008391200083912000839120008C4
:1000F00039120008391200083912000839120008B4
:1001000039120008391200083912000839120008A3
:100110003912000839120008391200083912000893
:100120003912000839120008391200083912000883
:100130003912000839120008391200083912000873
:100140003912000839120008391200083912000863
:100150003912000839120008391200083912000853
:100160003912000839120008391200083912000843
:100170003912000839120008391200083912000833
:100180003912000839120008391200083912000823
:100190003912000800000000391200083912000866
:1001A0003912000839120008391200083912000803
:1001B00039120008391200083912000839120008F3
:1001C00039120008391200083912000839120008E3
:0801D000391200083912000881
:1001D8000348044B834202D0034B03B118477047CE
:1001E800100000201000002000000000054806490B
:1001F8000B1AD90F01EBA301491002D0034B03B12D
:100208001847704710000020100000200000000070
:1002180010B5064C237843B9FFF7DAFF044B13B146
:100228000448AFF300800123237010BD10000020A4
:10023800000000003C12000808B5044B1BB104493B
:100248000448AFF30080BDE80840CFE70000000095
:10025800140000203C12000870B50D4E0D4D761BA1
:10026800B61006D0002455F8043B01349847A6423E
:10027800F9D1094E094D761B00F0DCFFB61006D007
:10028800002455F8043B01349847A642F9D170BDC3
:10029800641200086412000868120008641200085A
:1002A800830730B548D0541E002A3FD0CAB203464F
:1002B80001E0013C3AD303F8012B9D07F9D1032C47
:1002C8002DD9CDB245EA05250F2C45EA054536D985
:1002D800A4F1100222F00F0C03F1200EE6444FEABD
:1002E800121C03F1100242E9045542E9025510328A
:1002F8007245F8D10CF1010214F00C0F03EB021255
:1003080004F00F0C13D0ACF1040323F003030433FF
:10031800134442F8045B9342FBD10CF003042CB164
:10032800CAB21C4403F8012B9C42FBD130BD644681
:100338001346002CF4D1F9E703461446BFE71A46E2
:10034800A446E0E7F0B58BB0002405940694079422
:1003580008940994354BDA6C42F00402DA64DA6CDA
:1003680002F004020192019ADA6C42F02002DA6487
:10037800DA6C02F020020292029ADA6C42F0010270
:10038800DA64DA6C02F001020392039ADA6C42F042
:100398000202DA64DB6C03F002030493049B224636
:1003A8004FF438714FF0904000F0ADFE204F2246D8
:1003B8008021384600F0A7FE1E4D224640212846DF
:1003C80000F0A1FE4FF4005305930694022307930F
:1003D80005A9384600F0A6FD4FF4387305930126A9
:1003E80006960794089405A94FF0904000F09AFDEE
:1003F8004FF4806305930694079405A9284600F0F6
:1004080091FD8023059306960794089405A938461C
:1004180000F088FD4023059306960794089405A9E3
:10042800284600F07FFD0BB0F0BD00BF0010024071
:10043800000800480004004872B6FEE700B595B011
:100448003822002106A8FFF72BFF0023019302930F
:100458000393049305934FF4007000F097F8022378
:1004680006934FF48072099240220A920D930E93DC
:100478000F931922109211931293139306A800F068
:100488009DF970B90F23019303210291002303936F
:100498000493059301A800F049FC20B915B05DF854
:1004A80004FBFFF7C9FFFFF7C7FF000008B500F01E
:1004B80023F9FFF7C3FFFFF745FF1FE01A4A127839
:1004C8003AB3013A184B1A7003E0174A137801330C
:1004D8001370154B1A78154B1B889A421CD3124B74
:1004E80000221A70124B1870012220214FF0904000
:1004F80000F009FE4FF4FA6000F020F94FF40051C3
:100508000C4800F0F9FD0C4B1870094B1B78984209
:10051800D4D09842D9D1DCE7002220214FF0904076
:1005280000F0F1FDEAE700BF2C00002000000020E9
:100538002D000020000800482E000020FEE7FEE7FE
:10054800FEE7FEE7FEE770477047704708B500F022
:10055800E3F808BD00B583B00B4B1A6E42F00102F8
:100568001A661A6E02F001020092009A9A6D42F021
:1005780080529A659B6D03F080530193019B00F0B4
:100588008BF803B05DF804FB00100240002836D158
:100598003E4B1B6803F4C063B3F5806F08D03B4A39
:1005A800D2F8803023F48073C2F88030002070477E
:1005B800364AD2F8803023F48073C2F8803013684A
:1005C80023F4C06343F400731360314B1B68322279
:1005D80002FB03F32F4AA2FB03239B0C013300E029
:1005E800013B2A4A526912F4806F01D0002BF7D1DF
:1005F800264B5B6913F4806F44D100207047B0F537
:10060800007F08D0214A136823F4C06343F4806351
:100618001360002070471D4B1B6803F4C063B3F5DB
:10062800806F08D0194AD2F8803043F48073C2F83A
:10063800803000207047154AD2F8803043F4807328
:10064800C2F88030136823F4C06343F40073136066
:100658000F4B1B68322202FB03F30E4AA2FB032353
:100668009B0C013300E0013B084A526912F4806F89
:1006780001D0002BF7D1054B5B6913F4806F03D1D0
:100688000020704703207047032070470070004027
:100698000C00002083DE1B43024A936843F4804326
:1006A8009360704700700040104B1B680BB9012025
:1006B800704710B504464FF47A70B0FBF3F30C4A58
:1006C8001068B0FBF3F000F06DFD68B90F2C01D98C
:1006D80001200AE0002221464FF0FF3000F02AFDF9
:1006E800044B1C60002000E0012010BD0400002025
:1006F8000C0000200800002010B5032000F008FDC1
:100708000F20FFF7D1FF10B10124204610BD044689
:10071800FFF720FFF9E70000034A13680349096857
:100728000B441360704700BF300000200400002015
:10073800014B1868704700BF3000002038B50446E8
:10074800FFF7F6FF0546B4F1FF3F02D0044B1B68E4
:100758001C44FFF7EDFF401BA042FAD338BD00BF91
:1007680004000020124BDA6802F00302D868C0F3D4
:100778000310431C032A11D00E48B0FBF3F00C4BB6
:10078800DB68C3F3062303FB00F0094BDB68C3F304
:10079800416301335B00B0FBF3F070470648B0FBE0
:1007A800F3F0034BDB68C3F3062303FB00F0ECE72D
:1007B800001002400024F40040787D01002800F079
:1007C800548270B582B00446036813F0010F37D025
:1007D800A44A936803F00C03D26802F003020C2BBE
:1007E80023D0082B23D06368B3F5803F4ED0B3F5F0
:1007F800A02F51D09B4B1A6822F480321A601A68D5
:1008080022F480221A606368002B52D0FFF790FF11
:100818000546944B1B6813F4003F11D1FFF788FF7E
:10082800401B6428F5D9032028E2032AD9D18D4B2F
:100838001B6813F4003F03D06368002B00F0178295
:10084800236813F0020F5DD0864A936803F00C0307
:10085800D26802F003020C2B3AD0042B3AD0E3689A
:10086800002B75D07F4A136843F480731360FFF739
:100878005FFF05467B4B1B6813F4806F5FD1FFF762
:1008880057FF401B0228F5D90320F7E1754A136882
:1008980043F480331360B6E703F18043A3F53C3398
:1008A8001A6842F480221A601A6842F480321A6088
:1008B800A9E7FFF73DFF05466A4B1B6813F4003FA5
:1008C800BED0FFF735FF401B6428F5D90320D5E1DA
:1008D800022AC2D1634B1B6813F4806F03D0E3680C
:1008E800002B00F0C6815F4A536823F0FE4321695C
:1008F80043EA016353605C4B1868FFF7D5FE002894
:1009080040F0B981236813F0080F4CD063699BB39A
:10091800544AD2F8943043F00103C2F89430FFF7F8
:1009280007FF05464F4BD3F8943013F0020F3AD126
:10093800FFF7FEFE401B0228F4D903209EE1494A36
:10094800536823F0FE43216943EA01635360D9E702
:10095800444A136823F480731360FFF7E9FE0546E1
:10096800404B1B6813F4806FCCD0FFF7E1FE401BAF
:100978000228F5D9032081E13A4AD2F8943023F0CD
:100988000103C2F89430FFF7D3FE0546354BD3F880
:10099800943013F0020F06D0FFF7CAFE401B02285E
:1009A800F4D903206AE1236813F0040F00F0818072
:1009B8002C4B9B6D13F0805F36D12A4B9A6D42F019
:1009C80080529A659B6D03F080530193019B01252A
:1009D800264B1B6813F4807F28D0A368012B39D0DD
:1009E800052B45D01F4BD3F8902022F00102C3F805
:1009F8009020D3F8902022F00402C3F89020A36836
:100A0800002B43D0FFF794FE0646164BD3F89030E0
:100A180013F0020F4CD1FFF78BFE801B41F2883395
:100A28009842F2D9032029E10025D1E70F4A13683B
:100A380043F480731360FFF77BFE06460B4B1B687D
:100A480013F4807FC9D1FFF773FE801B0228F5D904
:100A5800032013E1034AD2F8903043F00103C2F8AF
:100A68009030CCE7001002400800002000700040E1
:100A78008A4BD3F8902042F00402C3F89020D3F8B0
:100A8800902042F00102C3F89020B8E7FFF750FE2B
:100A98000646824BD3F8903013F0020F08D0FFF7C8
:100AA80047FE801B41F288339842F2D90320E5E0E3
:100AB800E5B9236813F0200F35D0A369E3B1774A6D
:100AC800D2F8983043F00103C2F89830FFF730FEAF
:100AD8000546724BD3F8983013F0020F23D1FFF775
:100AE80027FE401B0228F4D90320C7E06B4A936D08
:100AF80023F080539365DCE7684AD2F8983023F0F6
:100B08000103C2F89830FFF713FE0546634BD3F88C
:100B1800983013F0020F06D0FFF70AFE401B022898
:100B2800F4D90320AAE0E369002B00F0A6805B4A11
:100B3800926802F00C020C2A69D0022B1DD0574B88
:100B48001A6822F080721A60DA6822F00302DA600A
:100B5800DA6822F0887222F48032DA60FFF7E8FD62
:100B680004464E4B1B6813F0007F4ED0FFF7E0FDA4
:100B7800001B0228F5D9032080E0484A136823F0B7
:100B880080731360FFF7D4FD0546444B1B6813F0D0
:100B9800007F06D0FFF7CCFD401B0228F5D90320C3
:100BA8006CE03E4AD3683E491940236A606A0138BE
:100BB80043EA0013A06A43EA0023206B4008013887
:100BC80043EA4053606B4008013843EA4063E06AF7
:100BD80043EAC0630B43D360136843F08073136028
:100BE800D36843F08073D360FFF7A2FD04462B4B14
:100BF8001B6813F0007F06D1FFF79AFD001B02283F
:100C0800F5D903203AE0002038E0002036E0012B37
:100C180036D0224BDB6803F00301226A914231D1BE
:100C280003F0F002616A0139B2EB011F2CD103F421
:100C3800FE42A16AB2EB012F28D103F07842E16AA3
:100C4800B2EBC16F24D103F4C001226B5208013A00
:100C5800B1EB425F1ED103F0C063626B5208013AE8
:100C6800B3EB426F18D1002008E001207047012043
:100C780004E0012002E0012000E0002002B070BD85
:100C88000120FBE70120F9E70120F7E70120F5E75C
:100C98000120F3E70120F1E70120EFE7001002400F
:100CA8000C809F011E4B9B6803F00C03042B33D070
:100CB8001B4B9B6803F00C03082B2FD0184B9B6829
:100CC80003F00C030C2B01D000207047144BDA689A
:100CD80002F00302D868C0F30310431C032A11D0A2
:100CE8001048B0FBF3F00E4BDB68C3F3062303FB9D
:100CF80000F00B4BDB68C3F3416301335B00B0FBCF
:100D0800F3F070470848B0FBF3F0054BDB68C3F31A
:100D1800062303FB00F0ECE70248704702487047DF
:100D2800001002400024F40040787D01002800F003
:100D3800E680F8B50C460546744B1B6803F00F03B4
:100D48008B420BD2714A136823F00F030B431360D5
:100D5800136803F00F038B4240F0D3802E6816F01F
:100D680001065FD06B68032B2FD0022B4DD0684B48
:100D78001B6813F4806F00F0C680FFF793FF654B84
:100D880098424DD9624A936823F0F00343F08003F8
:100D9800936080265E4A936823F0030369680B43D7
:100DA8009360FFF7C5FC0746594B9B6803F00C039B
:100DB8006A68B3EB820F35D0FFF7BAFCC01B41F26B
:100DC80088339842F0D9032078E0514B1B6813F020
:100DD800007F01D1012071E0FFF7C4FC4D4B984220
:100DE8001AD94B4B9B6813F0F00F05D02E6816F0FC
:100DF8000206CFD0AB688BB9454A936823F0F0035D
:100E080043F0800393608026C4E7414B1B6813F4CA
:100E1800003FB2D1012051E00026BBE70026B9E728
:100E28000026B7E72B6813F0020F48D013F0040F21
:100E380004D0374A936843F4E06393602B6813F057
:100E4800080F06D0324A936823F47C5343F4E063D6
:100E580093602F4A936823F0F003A9680B439360CB
:100E68002A4B1B6803F00F03A34230D82B6813F0FA
:100E7800040F06D0264A936823F4E063E9680B431D
:100E880093602B6813F0080F07D0214A936823F466
:100E98006053296943EAC1039360FFF703FF1C4BC2
:100EA8009B68C3F303131C4AD35C03F01F03D840A9
:100EB8001A4B18601A4B1868FFF7F6FBF8BD802E1E
:100EC800CED1134A936823F0F0039360C8E70F4A22
:100ED800136823F00F0323431360FFF729FC06462A
:100EE8000A4B1B6803F00F03A342BFD0FFF720FC97
:100EF800801B41F288339842F2D90320DEE70120B3
:100F080070470120DAE70120D8E700BF002002403F
:100F18000010024000B4C404541200080C00002061
:100F280008000020F0B583B0002362E085685E0009
:100F38000324B44025EA0405CC68B4402C438460FB
:100F4800446824EA0C0C4C68C4F300149C4044EA3E
:100F58000C0444605EE0DD08083550F8256003F0B5
:100F680007044FEA840C0F2404FA0CF426EA040E52
:100F78000C6904FA0CF444EA0E0440F8254060E0D9
:100F8800052400E0002404FA0EF42C430CF1020CB2
:100F9800554D45F82C40554CA568D44325EA020622
:100FA8004F6817F4801F01D042EA05064F4DAE6026
:100FB800ED6804EA05064F6817F4001F01D042EAFD
:100FC80005064A4DEE606D6804EA05064F6817F499
:100FD800003F01D042EA0506444D6E602D682C4062
:100FE8004E6816F4803F01D042EA05043F4A146077
:100FF80001330A6832FA03F474D04FF0010C0CFA8A
:1010080003FC1CEA0202F3D04C6804F00304013C20
:10101800012C8BD94C6804F00304032C0CD0C46851
:101028005D004FF0030C0CFA05FC24EA0C0C8C68EC
:10103800AC4044EA0C04C4604C6804F00304022C7D
:1010480089D004684FEA430E4FF0030C0CFA0EFCEB
:1010580024EA0C0C4C6804F0030404FA0EF444EA85
:101068000C0404604C6814F4403FC1D0204C256E39
:1010780045F001052566246E04F001040194019CE5
:101088004FEA930C0CF10205174C54F8255003F065
:1010980003044FEA840E0F2404FA0EF425EA04052B
:1010A800B0F1904F3FF46EAF124CA04212D004F54D
:1010B8008064A04210D004F58064A0420ED004F5EC
:1010C8008064A0420CD004F58064A0423FF458AF7D
:1010D800062458E7012456E7022454E7032452E77C
:1010E800042450E703B0F0BD0000014000040140B3
:1010F80000100240000400480369194201D0012091
:101108007047002070470AB181617047816270475B
:10111800074AD36823F4E0631B041B0C000200F4A5
:10112800E060034343F0BF6343F40033D360704788
:1011380000ED00E000B5194BDB68C3F30223C3F1EF
:10114800070CBCF1040F28BF4FF0040C03F1040E88
:10115800BEF1060F18D9033B4FF0FF3E0EFA0CFC08
:1011680021EA0C0199400EFA03F322EA030319431A
:1011780000280BDB0901C9B200F1604000F56140AD
:1011880080F800135DF804FB0023E5E700F00F008A
:101198000901C9B2024B1954F4E700BF00ED00E0A1
:1011A80014ED00E00138B0F1807F0BD24FF0E0235E
:1011B8005861054AF02182F823100020986107221F
:1011C8001A6170470120704700ED00E0034AD2F829
:1011D800883043F47003C2F88830704700ED00E0AF
:1011E8000D4885460D480E490E4A002302E0D458A2
:1011F800C4500433C4188C42F9D30B4A0B4C002357
:1012080001E013600432A242FBD3FFF7DFFFFFF7D0
:1012180023F8FFF74BF9FEE700000220000000204A
:10122800100000206C12000810000020340000207C
:10123800FEE70000F8B500BFF8BC08BC9E46704742
:0C124800F8B500BFF8BC08BC9E4670471B
:101254000000000000000000010203040607080962
:04126400410200083B
:04126800190200085F
:10126C006400000001000000100000000024F400E5
:04000005080011E9F5
:00000001FF
