:020000040800F2
:1000000000000220D13E0008692000086B20000893
:100010006D2000086F20000871200008000000001B
:100020000000000000000000000000007320000835
:1000300075200008000000007720000879200008E3
:10004000213F0008213F0008213F0008213F000810
:10005000213F0008213F0008213F0008213F000800
:10006000213F0008213F0008213F0008213F0008F0
:10007000213F0008213F0008213F0008213F0008E0
:10008000213F0008213F0008213F0008213F0008D0
:10009000213F0008213F0008213F0008213F0008C0
:1000A000213F0008213F0008213F0008213F0008B0
:1000B000213F0008213F0008213F0008213F0008A0
:1000C000213F0008213F0008213F0008213F000890
:1000D000213F000881200008213F0008213F00083F
:1000E000213F0008213F0008213F0008213F000870
:1000F000213F0008213F0008213F0008213F000860
:10010000213F0008213F0008213F0008213F00084F
:10011000213F0008213F0008213F0008213F00083F
:10012000213F0008213F0008213F0008213F00082F
:10013000213F0008213F0008213F0008213F00081F
:10014000213F0008213F0008213F0008213F00080F
:10015000213F0008213F0008213F0008213F0008FF
:10016000213F0008213F0008213F0008213F0008EF
:10017000213F0008213F0008213F0008213F0008DF
:10018000213F0008213F0008213F0008213F0008CF
:10019000213F000800000000213F0008213F000827
:1001A000213F0008213F0008213F0008213F0008AF
:1001B000213F0008213F0008213F0008213F00089F
:1001C000213F0008213F0008213F0008213F00088F
:0801D000213F0008213F000857
:1001E0000348044B834202D0034B03B118477047C6
:1001F0007000002070000020000000000548064943
:100200000B1AD90F01EBA301491002D0034B03B124
:1002100018477047700000207000002000000000A8
:1002200010B5064C237843B9FFF7DAFF044B13B13E
:100230000448AFF300800123237010BD700000203C
:1002400000000000243F000808B5044B1BB104491E
:100250000448AFF30080BDE80840CFE7000000008D
:1002600074000020243F000870B50D4E0D4D761B24
:10027000B61006D0002455F8043B01349847A64236
:10028000F9D1094E094D761B03F04CFEB61006D08D
:10029000002455F8043B01349847A642F9D170BDBB
:1002A000304000083040000834400008304000086A
:1002B000830730B548D0541E002A3FD0CAB2034647
:1002C00001E0013C3AD303F8012B9D07F9D1032C3F
:1002D0002DD9CDB245EA05250F2C45EA054536D97D
:1002E000A4F1100222F00F0C03F1200EE6444FEAB5
:1002F000121C03F1100242E9045542E90255103282
:100300007245F8D10CF1010214F00C0F03EB02124C
:1003100004F00F0C13D0ACF1040323F003030433F7
:10032000134442F8045B9342FBD10CF003042CB15C
:10033000CAB21C4403F8012B9C42FBD130BD644679
:100340001346002CF4D1F9E703461446BFE71A46DA
:10035000A446E0E72DE9F0410E460746002833D0D9
:1003600083697BB384682F4B9C4237D02E4B9C42D1
:100370003FD02E4B9C4208BFFC68A3891B0731D598
:1003800023697BB33578B0463DB934E023685A1C05
:1003900022601D7018F8015F6DB3A368013B002B4C
:1003A000A360F3DAA669B34229462246384601DB48
:1003B0000A2DEBD100F0B4F80130EBD14FF0FF3053
:1003C000BDE8F08100F082FBBB69BC68002BCAD19C
:1003D000384600F07BFB134B9C42C7D17C68A38955
:1003E0001B07CDD42146384600F0FEF80028C9D0BE
:1003F000E4E7BC68C1E7A368013B002BA36009DA0E
:1004000022460A21384600F08BF80130D6D00A2067
:10041000BDE8F08123680A22591C21601A70104639
:10042000BDE8F081803F0008603F0008403F0008C1
:10043000024B01461868FFF78DBF00BF0000002087
:1004400010B51A4C002924689AB02ADB0090049059
:100450004FF40270ADF80C0013D001394FF6FF7065
:1004600002910591ADF80E006946204600F0BAFDF4
:10047000421C01DA8B232360009B00221A701AB001
:1004800010BD4FF6FF7002910591ADF80E00694660
:10049000204600F0A7FD431C01DA8B2323601AB02D
:1004A00010BD8B2323604FF0FF30F8E700000020E1
:1004B00030B5141E9BB005462CDB4FF40272009140
:1004C0000491ADF80C2014D04FF6FF711A46013C90
:1004D000ADF80E101E9B02946946059400F082FD53
:1004E000421C01DA8B232B60009B00221A701BB088
:1004F00030BD4FF6FF711A46ADF80E101E9B0294E8
:100500006946059400F06EFD431C01DA8B232B60D5
:100510001BB030BD8B2303604FF0FF30F8E700BF06
:10052000F8B50D461446064608B1836943B3254B1A
:100530009C422AD0244B9C4229D0244B9C4208BF89
:10054000F468A389A269A2601A0722D5236903B3BC
:1005500022686169D31AEDB299422F4629DD013331
:10056000A1680139A160511C2160157062699A422D
:1005700016D0A389DB0701D50A2D11D03846F8BD66
:1005800000F0A4FA0F4B9C42D4D17468D9E7B46848
:10059000D7E72146304600F027F838B92369D7E776
:1005A0002146304600F02CF90028E7D04FF0FF3705
:1005B000E4E72146304600F023F90028F6D122680E
:1005C0000123CDE7803F0008603F0008403F00085E
:1005D00010B4044C03460A4620685DF8044B1946E3
:1005E000FFF79EBF000000203C4B70B51D6806461B
:1005F0000C460DB1AB69E3B1394B9C421FD0394B6E
:100600009C424DD0384B9C4208BFEC68B4F90C308A
:1006100018079AB219D5216911B312F001002FD031
:100620000020A06060694042A06100292ED0002017
:1006300070BD284600F04AFA294B9C42DFD16C6815
:10064000B4F90C3018079AB2E5D4D1063ED552075A
:1006500028D4216943F00803A3819AB20029DCD190
:1006600002F42070B0F5007FD7D02146304600F06C
:1006700091FAB4F90C3021699AB212F00100CFD18D
:10068000950758BF6069A0600029D0D1120658BFF5
:100690000846CDD543F04003A3814FF0FF3070BD35
:1006A000AC68B3E7616B51B104F14402914204D0EC
:1006B000304600F0FDFAB4F90C3000226263216983
:1006C0000022C4E9001223F02403C3E7092243F007
:1006D000400332604FF0FF30A38170BD0000002066
:1006E000803F0008603F0008403F00088B891A07E0
:1006F0002DE9F0410C4680463FD44A68002A58DD77
:10070000E66A002E52D00022D8F80050C8F8002027
:1007100013F4805251D10123216A4046B047431C53
:100720005ED0A389E66A5F0705D56368C01A636B6C
:100730000BB1236CC01A216A024600234046B04721
:10074000411C3CD1D8F80030002B38D01D2B01D0F3
:10075000162B4DD123690022C4E90032616BC8F821
:10076000005019B304F14403994202D0404600F00E
:100770009FFA00206063BDE8F0810E69B6B10D6894
:100780000E609A070CBF4B690023AD1B8B600BE01A
:100790002B463246216AA76A4046B847B0F1000CA2
:1007A000A5EB0C05664413DD002DF1DC0020BDE84F
:1007B000F0810A6C002AA3DCF8E7606DB3E7002340
:1007C000636023692360A389DB04C7D56065C5E73F
:1007D000A38943F040034FF0FF30A381BDE8F081CF
:1007E000D8F80030002B9CD01D2B06D0162B04D03F
:1007F000A38943F04003A381D9E7C8F80050D5E7A7
:1008000038B50B69BBB10D46044608B18369B3B175
:100810000D4B9D4211D00D4B9D4213D00C4B9D4270
:1008200008BFE568B5F90C302BB129462046BDE874
:100830003840FFF75BBF002038BD6568F2E700F085
:1008400045F9E5E7A568EDE7803F0008603F00084F
:10085000403F000838B540B303690446E3B1174B85
:100860001D680DB1AB69CBB1154B9C420FD0154B38
:100870009C4221D0144B9C4208BFEC68B4F90C3068
:1008800053B121462846BDE83840FFF72FBF6C68BA
:10089000B4F90C30002BF4D1002038BD284600F00C
:1008A00015F9074B9C42E2D1F1E7084B084918685B
:1008B000BDE8384000F04AB9AC68DFE7000000202E
:1008C000803F0008603F0008403F00083C3F0008B0
:1008D0000108000800207047014900F037B900BF47
:1008E000010800080020704770B568224D1E02FB09
:1008F00005F50E4605F1740100F03CFA044640B1DE
:1009000000210C30C4E90016A06005F16802FFF771
:10091000CFFC204670BD00BF274B2DE9F0411E687B
:10092000B369074653B348364FF00408D6E901349B
:10093000013B04D51EE05A1C04F168041AD0B4F936
:100940000C50013B002DF6D11C4B6566C4E90055E7
:10095000C4E90253C4E90455A5610822294604F1FB
:100960005C00FFF7A5FCC4E90D55C4E9125520460B
:10097000BDE8F08135682DB12E46D7E7304600F04E
:100980001FF8D0E74FF4D671384600F0F3F904466B
:1009900068B10560C0F804800C302946A060254687
:1009A0004FF4D072FFF784FC34602E46BEE70C2370
:1009B00030603B60DBE700BF3C3F00080100FFFF09
:1009C0002DE9F84F344B35491A68816290424FF057
:1009D0000003C0E91233036504BF012383610546A8
:1009E000FFF79AFF68602846FFF796FFA860284641
:1009F000FFF792FF6F68E86000240423C7E9024311
:100A000008222146C7E90044C7E904447C66BC616A
:100A100007F15C00FFF74CFCDFF88CB0AE68DFF844
:100A20008CA0DFF88C90DFF88C801D4BC7F828A0D5
:100A3000C7E9087BC7F82C90C7F830800822F3601C
:100A4000C6E90044C6E904447466B460B461214652
:100A500006F15C00FFF72CFCC6E9086BC6E90AA9A1
:100A6000C6F83080EE680F4BF360C6E90044C6E973
:100A700004447466B460B4612146082206F15C0047
:100A8000FFF716FC0123C6E9086BC6E90B98C6F808
:100A900028A0AB61BDE8F88F3C3F0008D9080008EA
:100AA0000900010012000200191600084116000892
:100AB00081160008A1160008024B0349186800F0CF
:100AC00045B800BF3C3F000801080008836903B92E
:100AD00076E77047704700BF704700BF704700BFA0
:100AE000704700BF024B0349186800F00FB800BF01
:100AF00000000020D5080008024B0349186800F0E8
:100B000005B800BF00000020E50800082DE9F0410D
:100B1000884600F148070026D7E90154013D0FD46B
:100B2000A389012B05F1FF3506D9B4F90E30013345
:100B3000204601D0C04706436B1C04F16804EFD186
:100B40003F68002FE8D13046BDE8F0812DE9F84339
:100B50000746884600F148064FF00009D6E90154DF
:100B6000013D11D4A389012B05F1FF3508D9B4F952
:100B70000E300133214603D03846C04749EA000908
:100B80006B1C04F16804EDD13668002EE6D14846AE
:100B9000BDE8F883F0B58B890C46990797B007D567
:100BA00004F147030122C4E90432236017B0F0BD09
:100BB000B4F90E10002905462DDB6A4600F09CFDB5
:100BC000002827DB019E06F470464FF48067A6F5E7
:100BD0000056B6FA86F639462846760900F0CAF875
:100BE00030B3A3891A4AAA6243F08003C4E9040718
:100BF000A3812060002ED9D0B4F90E10284600F051
:100C000091FD0028D2D0A38923F0030343F0010310
:100C1000A381CBE7A38913F0800F14BF40274FF4C3
:100C2000806739462846002600F0A4F80028D8D16D
:100C3000B4F90C309A05B9D423F0030304F1470248
:100C400043F002030121C4E90421A3812260ADE73E
:100C5000D908000870B50C46B1F90E10002996B0FD
:100C600016461D4613DB6A4600F046FD00280EDBE3
:100C7000019901F47041A1F50051B1FA81F14FF4ED
:100C80008063490900202960336016B070BDB4F953
:100C90000C3000221B062A6004D54023002033605C
:100CA00016B070BD4FF480630020336016B070BD85
:100CB000002958D030B551F8043C83B0002BA1F185
:100CC0000404B8BFE418019000F0C0FE284A01985F
:100CD000136833B1A3420DD9216804EB010C6345BD
:100CE0002FD06360146003B0BDE8304000F0B0BEA8
:100CF000A34210D81A465B68002BF9D1116802EBA9
:100D0000010C644519D02FD36360546003B0BDE873
:100D1000304000F09DBE116802EB010CA44516D0D6
:100D200022D8216804EB010C6345EDD11D685B6896
:100D30002944C4E900135460D5E7236819441160BD
:100D4000D1E71D685B682944C4E90013CAE7246839
:100D500021445418A3421160C5D1D3E90043214472
:100D6000C2E90013BFE770470C230360BBE700BF75
:100D70008C000020F8B5CD1C25F0030508350C2D9E
:100D800038BF0C25002D064623DBA94221D8254F6C
:100D900000F05CFE3A6822B3144603E06368224622
:100DA000FBB11C4623685B1BF8D40B2B15D863687A
:100DB00094420CBF3B605360304600F049FE04F1A2
:100DC0000B00231D20F00700C21A01D01B1AA350EC
:100DD000F8BD0C2333600020F8BD23601C4425605F
:100DE000EAE77968C9B12946304600F003FC431CA4
:100DF0000CD0C41C24F00304A04205D0211A3046B4
:100E000000F0F8FB013001D02560D5E70C23304617
:100E1000336000F01DFE0020F8BD304600F0EAFB14
:100E20007860E0E78C0000202DE9F0478F689F4252
:100E30000C461D46164638D88246888910F4906FB5
:100E40000ED108683D462A46314600F083FDA2686F
:100E50002368D21B2B44A26023600020BDE8F087EA
:100E60004B69096903EB4308236808EBD878A3EBC7
:100E700001096B1C4FEA68084B444345424684BF56
:100E800098464246430513D511465046FFF772FF78
:100E9000074608B321694A4600F0C2FCA38923F43F
:100EA000906343F08003A38107E008681F46CAE708
:100EB000504600F0CFFD074650B107EB0900A8EB04
:100EC00009032761C4F81480A36020602F46BAE7A5
:100ED00021695046FFF7ECFE0C23CAF80030A389C5
:100EE00043F040034FF0FF30A381B7E72DE9F04F07
:100EF000936883B09146002B6ED017688D6880464A
:100F00000C460868083744E0A38913F4906F2ED08C
:100F1000D4E90415A0EB010A05EB450505EBD575F1
:100F20000AEB06006D100130A8422A4684BF054630
:100F30002A465B0537D511464046FFF71BFF0028C0
:100F40003BD052462169019000F06AFCA289019BC6
:100F500022F4906242F08002A281A5EB0A0203EB28
:100F60000A006561A260236120603546B246594699
:100F7000524600F0EFFCA068D9F808102368451B22
:100F80008E1B03EB0A00A5602060C9F808601EB341
:100F9000083757E902B6002EFAD0B542AA46B3D9AF
:100FA0003546B246E3E7404600F054FD03460028CC
:100FB000D3D121694046FFF77BFE0C23C8F80030EF
:100FC000A389002243F040034FF0FF30A381C9E919
:100FD000012203B0BDE8F08F0020C9F8040003B07F
:100FE000BDE8F08F2DE9F04F92468A8915069DB035
:100FF000884681461C4603D50A69002A00F0EF8026
:10100000002209929AF800307E4D039420228DF838
:10101000292030228DF82A200126002B72D0544638
:1010200003E014F8013F002B76D0252BF9D1B4EB67
:101030000A0B74D12278002A64D000234FF0FF32CB
:10104000CDE90523049307938DF853301A930134A7
:1010500004E0049A06FA03F313430493A24605221C
:1010600014F8011B284600F08BFB431B0028F0D12D
:10107000049BD80644BF20228DF8532019079AF804
:10108000001044BF2B228DF853202A2954D1039AF3
:1010900011680432002903927CDB07919AF8011051
:1010A0000AF1010A2E2959D0574C0322204600F09C
:1010B00067FB40B1049B001B402404FA00F003438B
:1010C00004930AF1010A1AF8011B50488DF8281000
:1010D000062200F055FB002862D04D4B002B52D069
:1010E00003AA00924B4B424604A94846AFF3008046
:1010F00007467A1C06D0099B3B4409939AF80030B6
:10110000002B8CD1B8F80C305B0654BF09984FF017
:10111000FF301DB0BDE8F08FB4EB0A0BF2D05B4698
:10112000524641464846FFF77FFE0130EAD0099B10
:1011300022785B4409937EE7A1F13002092AB1D8F5
:10114000079B1AF8011F03EB830302EB4303A1F192
:101150003002092AF5D92E290793A5D19AF8011052
:101160002A2927D1039B9AF802101A6805920433A2
:10117000002A0AF102000393B8BF4FF0FF33824602
:10118000B8BF059390E7039B073323F007030833A9
:101190000393B0E7494243F00203079104937DE7CC
:1011A00003AA00921B4B424604A9484600F0CAF825
:1011B00007469EE7A1F130020023092A05930AF1B0
:1011C000010A3FF671AF1AF8011F03EB830302EB2C
:1011D0004303A1F13002092AF5D9059364E74021C0
:1011E000FFF7C8FDC8F80000C8F8100018B1402289
:1011F000C8F8142004E70C23C9F800304FF0FF3082
:1012000087E700BFEC3F0008F43F0008F83F000804
:1012100000000000290E00082DE9F84F92461F46F5
:101220000A698B68DDF828909A42B8BF1A46CAF856
:10123000002091F843300C46064613B10132CAF83B
:101240000020226891065DD5DAF800300233CAF832
:101250000030226812F0060F11461ED1E168CB1A49
:10126000002BD8BF114618DD04F1190B4FF0000810
:1012700005E0E568DAF80030ED1A45450CDD01239C
:101280005A4639463046C847013008F10108F0D1C6
:101290004FF0FF30BDE8F88F216894F84330003BF1
:1012A00018BF01238A060AD5E1185A1C302081F89C
:1012B0004300224494F8451082F84310023304F1AD
:1012C000430239463046C8470130E1D0236803F075
:1012D0000603042B1DD0A3682269934225DD4FF03D
:1012E00000089B1A98441A34002501E045451CDA91
:1012F0000123224639463046C847013005F1010531
:10130000F4D1C5E712F0060F12D0003B18BF01233D
:10131000D5E7DAF80030E1682269C91AA368934278
:1013200021EAE178DDDC0029DDDC0020BDE8F88F72
:10133000E168DAF80030CB1A002BD8BF114693DCF5
:10134000ABE700BF2DE9F0470C4684B09046227E03
:101350000C990746994604F14300002A33D0A2F1C4
:101360005803DDB2202D67D8202B65D8DFE813F0B5
:10137000DE006400640064006400640064006400D3
:10138000640064006400A3006E00640064006400F4
:1013900064006E00640064006400640021007F004B
:1013A000C00064006400AE0064007F00640064005C
:1013B000E50023681A0640F104810B6862691D1D6F
:1013C0000D601B681A60002382462361CDF80090EF
:1013D000434603AA21463846FFF71EFF013020D0BE
:1013E0002369524641463846C847013019D0236820
:1013F000E068039E9B0719D5831B002B16DD04F1C3
:10140000190A002504E0E068039E831BAB420DDD52
:101410000123524641463846C847013005F10105CF
:10142000F1D14FF0FF3004B0BDE8F087B042B8BF53
:10143000304604B0BDE8F087012384F842202361E0
:1014400004F1420A002384F84330BFE723681A06F8
:1014500002D45E0600F1C1800D682A6804350D6073
:101460001546002A6BDBDFF884C10A2610E02368EA
:101470001D0640F19C800B681D1D0D601D68DFF886
:101480006CC16F2A0CBF08260A26002384F843305B
:101490006268A260002A7FDB236823F004032360D4
:1014A000002D5BD1002A79D18246082E65D0A0EBB1
:1014B0000A0020618AE70B680122186804330B6078
:1014C00004F1420A84F842002261BBE70B686268BB
:1014D000181D0860D3F800A00021504600F050F914
:1014E000002800F08180A0EB0A0060602061A9E77D
:1014F000236843F0200323607822DFF8F4C084F8E7
:1015000045200A68151D0D601D0643D4590641D5B6
:101510001588DE0744BF43F020032360002D44D12B
:10152000236823F0200323601026AEE7582384F8B5
:101530004530DFF8B8C02368E3E72368DCE762687A
:10154000A2602D21002AC5F1000584F8431002DBBA
:1015500023F004032360DFF894C00A268246B5FB1B
:10156000F6F306FB13512A461CF801100AF8011D78
:10157000B2421D46F3D2082E99D12368D90796D5D9
:10158000626823699A4292DC30230AF8013C0AF12E
:10159000FF3A8CE71568BCE7002DDFD19CF80030DE
:1015A00084F8423004F1420A7FE710266DE713F019
:1015B000400F0B6803F104050D600CBF1D681D880A
:1015C0005DE713F0400F0B68626903F104050D60DD
:1015D0001B6814BF1A801A60F5E60A68B2F9005059
:1015E00004320A602A463CE760687FE70040000852
:1015F0001440000838B5074D0022044608462A600A
:1016000000F098FA431C00D038BD2B68002BFBD0AB
:10161000236038BD9400002010B50C46B1F90E10BF
:1016200000F040FA002803DB636D0344636510BDDE
:10163000A38923F48053A38110BD00BF002070470D
:101640002DE9F0410C46B1F90C101F46CB050546BB
:1016500016460BD421F48051A1813B46B4F90E10FB
:1016600032462846BDE8F04100F01EB8B4F90E102D
:101670000223002200F068F8B4F90C10EAE700BF7A
:1016800010B50C46B1F90E1000F05EF8A389421CAB
:101690000EBF23F4805343F480536065A38110BDD3
:1016A000B1F90E1000F016B838B50C46084D844656
:1016B000114620461A4600232B60644600F0F4FBD6
:1016C000431C00D038BD2B68002BFBD0236038BDF5
:1016D0009400002038B5074D0022044608462A60D1
:1016E00000F000FA431C00D038BD2B68002BFBD063
:1016F000236038BD9400002070B50C46084D0346A9
:101700000026204611461C462E6000F0F3F9431CCB
:1017100000D070BD2B68002BFBD0236070BD00BFD4
:101720009400002038B5074D0022044608462A6080
:1017300000F0E8F9431C00D038BD2B68002BFBD02B
:10174000236038BD9400002038B50C46084D84460F
:10175000114620461A4600232B60644600F0DAF951
:10176000431C00D038BD2B68002BFBD0236038BD54
:1017700094000020000000000000000000000000B5
:1017800001F0FF01102A2BDB10F0070F08D010F832
:10179000013B013A8B422DD010F0070F42B3F6D136
:1017A000F0B441EA012141EA014122F007047FF04F
:1017B00000070023F0E80256083C85EA010586EAA6
:1017C000010685FA47F5A3FA87F586FA47F6A5FAE2
:1017D00087F68EB9EED1F0BC01F0FF0102F00702EE
:1017E00032B110F8013B013A83EA010313B1F8D199
:1017F0000020704701387047002D06BF354603387A
:10180000073815F0010F07D1013015F4807F02BFB2
:10181000013015F4C03F0130F0BC0138704700BF03
:10182000844641EA000313F003036DD1403A41D3EB
:1018300051F8043B40F8043B51F8043B40F8043BAA
:1018400051F8043B40F8043B51F8043B40F8043B9A
:1018500051F8043B40F8043B51F8043B40F8043B8A
:1018600051F8043B40F8043B51F8043B40F8043B7A
:1018700051F8043B40F8043B51F8043B40F8043B6A
:1018800051F8043B40F8043B51F8043B40F8043B5A
:1018900051F8043B40F8043B51F8043B40F8043B4A
:1018A00051F8043B40F8043B51F8043B40F8043B3A
:1018B000403ABDD2303211D351F8043B40F8043BDA
:1018C00051F8043B40F8043B51F8043B40F8043B1A
:1018D00051F8043B40F8043B103AEDD20C3205D3EA
:1018E00051F8043B40F8043B043AF9D2043208D0E2
:1018F000D2071CBF11F8013B00F8013B01D30B8854
:1019000003806046704700BF082A13D38B078DD031
:1019100010F003038AD0C3F10403D21ADB071CBF03
:1019200011F8013B00F8013B80D331F8023B20F86D
:10193000023B7BE7043AD9D3013A11F8013B00F8A6
:10194000013BF9D20B7803704B7843708B7883702E
:101950006046704788420DD98B1883420AD900EB44
:10196000020CBAB1624613F801CD02F801CD9942DA
:10197000F9D170470F2A0ED8034602F1FF3C4AB155
:101980000CF1010C013B8C4411F8012B03F8012FE1
:101990006145F9D1704740EA01039B0750D1A2F19C
:1019A000100370B501F1200C23F00F0501F1100EAA
:1019B00000F11004AC441B095EF8105C44F8105CA4
:1019C0005EF80C5C44F80C5C5EF8085C44F8085C5B
:1019D0005EF8045C44F8045C0EF1100EE64504F178
:1019E0001004E9D1013312F00C0F01EB031102F0E6
:1019F0000F0400EB031327D0043C24F003064FEA46
:101A0000940C1E441C1F8E465EF8045B44F8045F71
:101A1000B442F9D10CF1010402F0030203EB840398
:101A200001EB840102F1FF3C4AB10CF1010C013BD6
:101A30008C4411F8012B03F8012F6145F9D170BDD9
:101A400002F1FF3C03469BE72246EBE7704700BFED
:101A5000704700BFF8B51446F9B1CAB106460D4645
:101A600000F036F8A04202D32F463846F8BD214692
:101A70003046FFF77FF907460028F6D02246294670
:101A8000FFF7CEFE30462946FFF712F93846F8BD7B
:101A90002746FFF70DF93846F8BDBDE8F840114676
:101AA000FFF768B938B50C46084D84461146204604
:101AB0001A4600232B60644600F034F8431C00D023
:101AC00038BD2B68002BFBD0236038BD940000206C
:101AD00051F8040C0028A0F10400BCBF0B58C0183A
:101AE000704700BF024B58221A604FF0FF3070471A
:101AF00094000020024B58221A604FF0FF307047CC
:101B000094000020024B58221A600020704700BF4A
:101B100094000020024B58221A604FF0FF307047AB
:101B200094000020024B58221A604FF0FF3070479B
:101B300094000020044A05491368002B08BF0B4697
:101B4000184410601846704798000020C00100201B
:101B500053B94AB9002908BF00281CBF4FF0FF3114
:101B60004FF0FF3000F074B9ADF1080C6DE904CE10
:101B700000F006F8DDF804E0DDE9022304B0704768
:101B80002DE9F047089D04468E46002B4DD18A4230
:101B9000944669D9B2FA82F252B101FA02F3C2F163
:101BA000200120FA01F10CFA02FC41EA030E9440F4
:101BB0004FEA1C48210CBEFBF8F61FFA8CF708FB15
:101BC00016E341EA034306FB07F199420AD91CEBED
:101BD000030306F1FF3080F01F81994240F21C811F
:101BE000023E63445B1AA4B2B3FBF8F008FB103367
:101BF00044EA034400FB07F7A7420AD91CEB04049C
:101C000000F1FF3380F00A81A74240F2078164446B
:101C1000023840EA0640E41B00261DB1D4400023F0
:101C2000C5E900433146BDE8F0878B4209D9002D54
:101C300000F0EF800026C5E9000130463146BDE8DE
:101C4000F087B3FA83F6002E4AD18B4202D3824248
:101C500000F2F980841A61EB030301209E46002DF7
:101C6000E0D0C5E9004EDDE702B9FFDEB2FA82F24C
:101C7000002A40F09280A1EB0C014FEA1C471FFAAA
:101C80008CFE0126200CB1FBF7F307FB131140EA91
:101C900001410EFB03F0884208D91CEB010103F15E
:101CA000FF3802D2884200F2CB804346091AA4B220
:101CB000B1FBF7F007FB101144EA01440EFB00FEF4
:101CC000A64508D91CEB040400F1FF3102D2A64559
:101CD00000F2BB800846A4EB0E0440EA03409CE7F8
:101CE000C6F12007B34022FA07FC4CEA030C20FAA5
:101CF00007F401FA06F31C43F9404FEA1C4900FAC5
:101D000006F3B1FBF9F8200C1FFA8CFE09FB181141
:101D100040EA014108FB0EF0884202FA06F20BD9B4
:101D20001CEB010108F1FF3A80F08880884240F204
:101D30008580A8F102086144091AA4B2B1FBF9F048
:101D400009FB101144EA014100FB0EFE8E4508D943
:101D50001CEB010100F1FF346CD28E456AD90238C8
:101D6000614440EA0840A0FB0294A1EB0E01A142AD
:101D7000C846A64656D353D05DB1B3EB080261EB1B
:101D80000E0101FA07F722FA06F3F1401F43C5E9F5
:101D9000007100263146BDE8F087C2F12003D8402B
:101DA0000CFA02FC21FA03F3914001434FEA1C476D
:101DB0001FFA8CFEB3FBF7F007FB10360B0C43EA5F
:101DC000064300FB0EF69E4204FA02F408D91CEB0F
:101DD000030300F1FF382FD29E422DD9023863440D
:101DE0009B1B89B2B3FBF7F607FB163341EA0341AD
:101DF00006FB0EF38B4208D91CEB010106F1FF38FC
:101E000016D28B4214D9023E6144C91A46EA0046F2
:101E100038E72E46284605E70646E3E61846F8E684
:101E20004B45A9D2B9EB020864EB0C0E0138A3E7CD
:101E30004646EAE7204694E74046D1E7D0467BE7AE
:101E4000023B614432E7304609E76444023842E726
:101E5000704700BF84B0134BDA6C42F02002DA64A2
:101E6000DA6C02F020020092009ADA6C42F004026E
:101E7000DA64DA6C02F004020192019ADA6C42F040
:101E80000102DA64DA6C02F001020292029ADA6C60
:101E900042F00202DA64DB6C03F002030393039B5B
:101EA00004B070470010024010B51446642392B28B
:101EB000024800F0A4FE204610BD00BF9C00002098
:101EC0000FB410B5ADF5816D0DF5826353F8042B99
:101ED00001934FF4806102A8FEF7B2FA04464FF472
:101EE0007A7382B202A9054800F089FE20460DF5FA
:101EF000816DBDE8104004B0704700BF2C01002088
:101F000072B6FEE708B51548154B03604FF4E13390
:101F1000436000238360C36003610C2242618361DC
:101F2000C36103624362836200F012FF70B9002153
:101F30000A4800F089FF58B90021084800F0A9FFBD
:101F400040B9064800F061FF30B908BDFFF7D8FF7F
:101F5000FFF7D6FFFFF7D4FFFFF7D2FF9C0000206A
:101F60000038014008B51548154B03604FF4E133C4
:101F7000436000238360C36003610C22426183617C
:101F8000C36103624362836200F0E2FE70B9002124
:101F90000A4800F059FF58B90021084800F079FFBD
:101FA00040B9064800F031FF30B908BDFFF7A8FF7F
:101FB000FFF7A6FFFFF7A4FFFFF7A2FF2C01002009
:101FC0000044004000B595B03822002106A8FEF775
:101FD0006FF90023019302930393049305934FF445
:101FE000007000F003F9022306934FF48072099207
:101FF00040220A920D930E930F931922109211937F
:102000001293139306A800F0F3FF70B90F23019306
:1020100003210291002303930493059301A801F087
:102020009FFA20B915B05DF804FBFFF769FFFFF7D1
:1020300067FF000008B500F079FFFFF7C3FFFFF767
:1020400009FFFFF75FFFFFF78DFF0548FEF7F0F987
:102050000448FFF735FF4FF47A7000F089FFF4E78A
:10206000A03F0008A43F0008FEE7FEE7FEE7FEE70A
:10207000FEE770477047704708B500F067FF08BD7E
:1020800008B50C4B1B68DA69196812F0200F02D0F2
:1020900011F0200F03D1074800F080F908BDDA697C
:1020A0005B6A4FF47A7301226121034800F0A7FDB7
:1020B000F1E700BF9C0000202C01002000B583B098
:1020C0000B4B1A6E42F001021A661A6E02F0010200
:1020D0000092009A9A6D42F080529A659B6D03F0CF
:1020E00080530193019B00F007F903B05DF804FBF6
:1020F0000010024010B59EB00446002119911A91BB
:102100001B911C911D91542204A8FEF7D1F823685D
:10211000314A934204D0314A934233D01EB010BDAD
:102120000123049304A801F041FB40BB2C4B1A6E21
:1021300042F480421A661A6E02F480420092009ABB
:10214000DA6C42F00402DA64DB6C03F004030193FE
:10215000019B3023199302231A9300241B941C948F
:1021600007231D9319A91F4801F0DCFC22462146D4
:10217000252001F049FE252001F07EFECEE7FFF785
:10218000BFFED3E70223049304A801F00FFB00BBBA
:10219000134B9A6D42F400329A659A6D02F4003244
:1021A0000292029ADA6C42F00202DA64DB6C03F00B
:1021B00002030393039B1823199302231A9300230A
:1021C0001B931C9307231D9319A9074801F0AAFC30
:1021D000A4E7FFF795FEDBE700380140004400402C
:1021E000001002400008004800040048002836D1D2
:1021F0003E4B1B6803F4C063B3F5806F08D03B4AC5
:10220000D2F8803023F48073C2F880300020704709
:10221000364AD2F8803023F48073C2F880301368D5
:1022200023F4C06343F400731360314B1B68322204
:1022300002FB03F32F4AA2FB03239B0C013300E0B4
:10224000013B2A4A526912F4806F01D0002BF7D16A
:10225000264B5B6913F4806F44D100207047B0F5C2
:10226000007F08D0214A136823F4C06343F48063DD
:102270001360002070471D4B1B6803F4C063B3F567
:10228000806F08D0194AD2F8803043F48073C2F8C6
:10229000803000207047154AD2F8803043F48073B4
:1022A000C2F88030136823F4C06343F400731360F2
:1022B0000F4B1B68322202FB03F30E4AA2FB0323DF
:1022C0009B0C013300E0013B084A526912F4806F15
:1022D00001D0002BF7D1054B5B6913F4806F03D15C
:1022E00000207047032070470320704700700040B3
:1022F0006C00002083DE1B43024A936843F4804352
:102300009360704700700040026852E8003F23F479
:10231000907342E800310029F6D1026802F1080307
:1023200053E8003F23F0805323F00103083242E8D2
:1023300000310029F1D1C36E012B06D02023C0F853
:1023400088300023C36603677047026852E8003F85
:1023500023F0100342E800310029F6D1EEE7704780
:1023600008B5026852E8003F23F0400342E800311C
:102370000029F6D12023C0F8843000234367FFF7FB
:10238000EEFF08BD704708B5806A0023A0F85E30F4
:10239000A0F85630FFF7F6FF08BD704770B5044649
:1023A0000168CB6908688D6840F60F021A4008D1B1
:1023B00013F0200F05D010F0200F34D115F0805FFE
:1023C00031D12AB1954A2A4033D1954E304230D18D
:1023D000E26E012A00F0C38013F4801F03D015F4CD
:1023E000800F40F05B8113F0800F07D010F0800F5A
:1023F00040F05B8115F4000F40F0578113F0400F5F
:1024000003D010F0400F40F0578113F4000F03D0B9
:1024100010F0804F40F0548113F0807F02D00028EC
:10242000C0F2528170BD236F002BFBD0204698472D
:10243000F8E713F0010F09D010F4807F06D00126D1
:102440000E62D4F88C103143C4F88C1013F0020FD4
:102450000BD015F0010F08D0216802260E62D4F8C7
:102460008C1041F00401C4F88C1013F0040F0BD051
:1024700015F0010F08D0216804260E62D4F88C10E4
:1024800041F00201C4F88C1013F0080F0BD010F0CB
:10249000200F00D13AB1226808211162D4F88C20B3
:1024A0000A43C4F88C2013F4006F0CD010F0806F36
:1024B00009D022684FF400611162D4F88C2042F0F8
:1024C0002002C4F88C20D4F88C20002AAAD013F063
:1024D000200F09D010F0200F02D115F0805F03D03B
:1024E000236F0BB120469847D4F88C2023689B6853
:1024F00013F0400F02D112F0280F29D02046FFF729
:1025000003FF23689B6813F0400F1DD0226802F17F
:10251000080353E8003F23F04003083242E800314B
:102520000029F3D1E36F5BB13E4A9A63E06F01F09B
:1025300019FC00283FF476AFE06F836B984771E792
:102540002046FFF71FFF6DE72046FFF71BFF69E7F7
:102550002046FFF717FF0023C4F88C3062E713F022
:10256000100F3FF439AF10F0100F3FF435AF1023C8
:102570000B6223689B6813F0400F55D0E26F13681D
:102580005B689BB2002B3FF44DAFB4F85C109942EE
:102590007FF648AFA4F85E3013681B6813F0200F75
:1025A00031D1226852E8003F23F4807342E80031C1
:1025B0000029F6D1226802F1080353E8003F23F016
:1025C0000103083242E800310029F3D1226802F108
:1025D000080353E8003F23F04003083242E800318B
:1025E0000029F3D12023C4F888300023E366226851
:1025F00052E8003F23F0100342E800310029F6D1F1
:10260000E06F01F079FBB4F85C10B4F85E309BB277
:10261000C91A89B22046FFF7C0FE03E70100001087
:102620002001000487230008B4F85C10B4F85E3081
:102630009BB2C91A89B2B4F85E309BB2002B3FF44A
:10264000F1AE00293FF4EEAE226852E8003F23F4D9
:10265000907342E800300028F6D1226802F10803A6
:1026600053E8003F23F0805323F00103083242E88F
:1026700000300028F1D12023C4F888300023E3661D
:102680002367226852E8003F23F0100342E800303D
:102690000028F6D12046FFF780FEC3E64FF48013F2
:1026A0000B62204600F0AEFBBCE6636F002B3FF4EC
:1026B000B9AE20469847B5E62046FFF751FEB1E691
:1026C000204600F0A1FBADE6204600F09CFBA9E609
:1026D00070B5044601688368026913434269134375
:1026E000C26913430868964A024013430B6022688C
:1026F000536823F44053E1680B435360A169226897
:10270000904B9A4201D0236A1943936823F06E4399
:1027100023F430630B4393602268D36A23F00F03E2
:10272000616A0B43D3622368874A934210D0874A79
:10273000934221D0864A934237D0864A93425CD056
:10274000854A93426BD07F4A93427DD010223AE073
:1027500002F55842D2F8882002F00302032A09D871
:10276000DFE802F00204870601222CE004222AE0BE
:10277000082228E0102226E002F5E632D2F888206E
:1027800002F00C020C2A0ED8DFE802F0070D0D0D46
:10279000090D0D0D750D0D0D0B00002213E0042227
:1027A00011E008220FE010220DE002F5E432D2F829
:1027B000882002F03002202A5FD01AD8002A5ED08A
:1027C000102A5ED104225F498B4276D0E069B0F5D1
:1027D000004F00F0C980082A00F23481DFE812F0CF
:1027E000F7001901F50032011C01320132013201FA
:1027F0001F01302A47D10822E5E702F5E232D2F87C
:10280000882002F0C002802A3FD004D8FAB3402AC0
:102810003FD10422D7E7C02A3DD10822D3E702F5F1
:10282000E032D2F8882002F44072B2F5007F34D052
:1028300005D8A2B3B2F5807F33D10422C3E7B2F545
:10284000407F30D10822BEE702F5C832D2F8882096
:1028500002F44062B2F5006F27D005D83AB3B2F562
:10286000806F26D10422AEE7B2F5406F23D1082253
:10287000A9E70222A7E70222A5E70222A3E7002296
:10288000A1E710229FE710229DE702229BE700228A
:1028900099E7102297E7102295E7022293E700229A
:1028A00091E710228FE710228DE702228BE70022AA
:1028B00089E7102287E7102285E7082A00F2B28014
:1028C000DFE802F008B03BB038B0B0B005004FF41C
:1028D000004004E000F046FF002800F0A580626A96
:1028E0001E4B33F81220B0FBF2F3656805EB45018F
:1028F000994200F29B80B3EB053F00F299800026DD
:1029000033463146FFF724F9090241EA106100021B
:102910006B08C0182A46334641F10001FFF718F949
:10292000A0F540720E4B9A4200F284802368D86072
:10293000304665E000F0D0FDCEE70A48CFE700BFA3
:10294000F369FFCF008000400038014000440040A0
:1029500000480040004C004000500040AC3F0008E0
:10296000FFFC0F000024F400082A65D8DFE802F01D
:10297000072705642A6464640B00354803E000F00F
:10298000F1FE00285AD0626A324B33F81230B0FBA5
:10299000F3F06268530803EB4000B0FBF2F0A0F1E3
:1029A00010024FF6EF739A424AD883B223F00F0316
:1029B000C0F3420018432368D860002020E000F0F4
:1029C000E3FEDEE700F088FDDBE7214803E000F0EE
:1029D000C9FE002838D0626A1E4B33F81230B0FBB3
:1029E000F3F0636800EB5300B0FBF3F0A0F11002CA
:1029F0004FF6EF739A4229D8236880B2D86000203E
:102A00000123A4F86A30A4F86830002323676367C1
:102A100070BD00F0B9FEDCE700F05EFDD9E74FF4D1
:102A20000040D8E70120EBE70020E9E70120E7E7D5
:102A30000120E5E70120E3E70120E1E70020DFE7EF
:102A40000120DDE70120DBE70020D9E70120D7E7FF
:102A50000024F400AC3F0008836A13F0010F06D095
:102A60000268536823F40033C16A0B435360836ADE
:102A700013F0020F06D00268536823F48033016B11
:102A80000B435360836A13F0040F06D00268536847
:102A900023F48023416B0B435360836A13F0080FC8
:102AA00006D00268536823F40043816B0B435360E4
:102AB000836A13F0100F06D00268936823F48053E2
:102AC000C16B0B439360836A13F0200F06D002683A
:102AD000936823F40053016C0B439360836A13F0F3
:102AE000400F0AD00268536823F48013416C0B43F3
:102AF0005360436CB3F5801F0BD0836A13F0800FD3
:102B000006D00268536823F40023C16C0B43536062
:102B100070470268536823F4C003816C0B43536011
:102B2000EBE72DE9F84305460F4616469946DDF8D2
:102B300020802C68E46937EA04030CBF4FF0010CD5
:102B40004FF0000CB44557D1B8F1FF3FF1D000F081
:102B500009FAA0EB090040452FD8B8F1000F2CD09E
:102B60002B681A6812F0040FE3D0DA6912F4006FD0
:102B7000DFD04FF400621A622A6852E8003F23F463
:102B8000D07342E800310029F6D12A6802F1080327
:102B900053E8003F23F00103083242E800310029E6
:102BA000F3D12023C5F88430C5F88830C5F88C30BF
:102BB000002385F8803003201FE02A6852E8003F98
:102BC00023F4D07342E800310029F6D12A6802F1DB
:102BD000080353E8003F23F00103083242E80031C4
:102BE0000029F3D12023C5F88430C5F888300023AC
:102BF00085F88030032000E00020BDE8F8832DE94F
:102C0000F04182B01E46D0F88430202B58D10446C3
:102C10000D469046002957D0002A57D090F88030B2
:102C2000012B55D0012380F880300023C0F88C3070
:102C30002123C0F8843000F095F90746A4F85480A9
:102C4000A4F85680A368B3F5805F05D04FF0000864
:102C5000002384F8803014E0236913B14FF000089A
:102C6000F6E7A8460025F3E738F8023B2268C3F3ED
:102C700008039362B4F8562092B2013A92B2A4F8D3
:102C80005620B4F856309BB273B100963B460022F2
:102C900080212046FFF745FFE0B9002DE4D015F86C
:102CA000012B23689A62E5E700963B46002240210B
:102CB0002046FFF736FF78B92023C4F8843000E0BF
:102CC000022002B0BDE8F0810120FAE70120F8E718
:102CD0000220F6E70320F4E70320F2E730B583B0E3
:102CE00004460023C0F88C3000F03CF90546226809
:102CF000126812F0080F0FD123681B6813F0040F3D
:102D000018D12023C4F88430C4F888300020E0664D
:102D100084F8800003B030BD6FF07E43009303461B
:102D200000224FF400112046FFF7FBFE0028E3D0FD
:102D30000320EFE76FF07E4300932B4600224FF411
:102D400080012046FFF7EDFE0028DAD00320E1E7FE
:102D500078B310B50446D0F884300BB32423C4F8FC
:102D600084302268136823F0010313602046FFF7C4
:102D7000AFFC012813D0A36ABBB92268536823F4BF
:102D8000904353602268936823F02A03936022687B
:102D9000136843F0010313602046FFF79FFF10BD47
:102DA00080F88030FFF7A6F9D8E72046FFF754FEF9
:102DB000E3E7012070470000436E2BB90123A0F820
:102DC0006A30A0F86830704730B403689A68C2F37C
:102DD00042629968490F094D6B5CDB00084C615CED
:102DE00093FBF1F3A0F86A30AB5CDB00A25C93FBD1
:102DF000F2F3A0F8683030BC704700BFCC3F000849
:102E0000C43F000870477047704790F88030012B2E
:102E100018D0012380F880302423C0F88430036860
:102E20001A68196821F00101196022F0005200238C
:102E3000436601680A602022C0F8842080F8803050
:102E4000184670470220704738B590F88030012B43
:102E50001DD00446012380F880302423C0F884303C
:102E600003681D681A6822F001021A6002689368FC
:102E700023F0604319439160FFF79EFF23681D60B4
:102E80002023C4F88430002084F8800038BD02205C
:102E9000FCE738B590F88030012B1DD004460123A3
:102EA00080F880302423C0F8843003681D681A68D5
:102EB00022F001021A600268936823F060631943EC
:102EC0009160FFF779FF23681D602023C4F88430E8
:102ED000002084F8800038BD0220FCE7104B1B68FE
:102EE0000BB90120704710B504464FF47A70B0FB5F
:102EF000F3F30C4A1068B0FBF3F000F0CBFF68B9B5
:102F00000F2C01D901200AE0002221464FF0FF30AA
:102F100000F07AFF044B1C60002000E0012010BD8F
:102F2000640000206C0000206800002010B5032021
:102F300000F058FF0F20FFF7D1FF10B10124204609
:102F400010BD0446FFF7BAF8F9E70000034A13681A
:102F5000034909680B441360704700BFBC0100209F
:102F600064000020014B1868704700BFBC010020BE
:102F700038B50446FFF7F6FF0546B4F1FF3F02D02F
:102F8000044B1B681C44FFF7EDFF401BA042FAD323
:102F900038BD00BF64000020124BDA6802F0030263
:102FA000D868C0F30310431C032A11D00E48B0FBAD
:102FB000F3F00C4BDB68C3F3062303FB00F0094B73
:102FC000DB68C3F3416301335B00B0FBF3F0704790
:102FD0000648B0FBF3F0034BDB68C3F3062303FBA7
:102FE00000F0ECE7001002400024F40040787D017E
:102FF000002800F0548270B582B00446036813F0D4
:10300000010F37D0A44A936803F00C03D26802F092
:1030100003020C2B23D0082B23D06368B3F5803F29
:103020004ED0B3F5A02F51D09B4B1A6822F48032BA
:103030001A601A6822F480221A606368002B52D04A
:10304000FFF790FF0546944B1B6813F4003F11D126
:10305000FFF788FF401B6428F5D9032028E2032AE4
:10306000D9D18D4B1B6813F4003F03D06368002B4C
:1030700000F01782236813F0020F5DD0864A936830
:1030800003F00C03D26802F003020C2B3AD0042B9D
:103090003AD0E368002B75D07F4A136843F48073FD
:1030A0001360FFF75FFF05467B4B1B6813F4806FCF
:1030B0005FD1FFF757FF401B0228F5D90320F7E146
:1030C000754A136843F480331360B6E703F1804315
:1030D000A3F53C331A6842F480221A601A6842F45D
:1030E00080321A60A9E7FFF73DFF05466A4B1B686F
:1030F00013F4003FBED0FFF735FF401B6428F5D91D
:103100000320D5E1022AC2D1634B1B6813F4806F00
:1031100003D0E368002B00F0C6815F4A536823F0B8
:10312000FE43216943EA016353605C4B1868FFF773
:10313000D5FE002840F0B981236813F0080F4CD069
:1031400063699BB3544AD2F8943043F00103C2F848
:103150009430FFF707FF05464F4BD3F8943013F038
:10316000020F3AD1FFF7FEFE401B0228F4D90320DC
:103170009EE1494A536823F0FE43216943EA016313
:103180005360D9E7444A136823F480731360FFF750
:10319000E9FE0546404B1B6813F4806FCCD0FFF767
:1031A000E1FE401B0228F5D9032081E13A4AD2F81A
:1031B000943023F00103C2F89430FFF7D3FE0546A4
:1031C000354BD3F8943013F0020F06D0FFF7CAFE48
:1031D000401B0228F4D903206AE1236813F0040F8E
:1031E00000F081802C4B9B6D13F0805F36D12A4B11
:1031F0009A6D42F080529A659B6D03F08053019363
:10320000019B0125264B1B6813F4807F28D0A368FF
:10321000012B39D0052B45D01F4BD3F8902022F03D
:103220000102C3F89020D3F8902022F00402C3F8E2
:103230009020A368002B43D0FFF794FE0646164B60
:10324000D3F8903013F0020F4CD1FFF78BFE801BA8
:1032500041F288339842F2D9032029E10025D1E7D1
:103260000F4A136843F480731360FFF77BFE064632
:103270000B4B1B6813F4807FC9D1FFF773FE801BD3
:103280000228F5D9032013E1034AD2F8903043F025
:103290000103C2F89030CCE7001002406800002023
:1032A000007000408A4BD3F8902042F00402C3F82B
:1032B0009020D3F8902042F00102C3F89020B8E7A4
:1032C000FFF750FE0646824BD3F8903013F0020F02
:1032D00008D0FFF747FE801B41F288339842F2D9AD
:1032E0000320E5E0E5B9236813F0200F35D0A3698A
:1032F000E3B1774AD2F8983043F00103C2F898302E
:10330000FFF730FE0546724BD3F8983013F0020FEA
:1033100023D1FFF727FE401B0228F4D90320C7E082
:103320006B4A936D23F080539365DCE7684AD2F8CB
:10333000983023F00103C2F89830FFF713FE0546DA
:10334000634BD3F8983013F0020F06D0FFF70AFE54
:10335000401B0228F4D90320AAE0E369002B00F007
:10336000A6805B4A926802F00C020C2A69D0022BFC
:103370001DD0574B1A6822F080721A60DA6822F06A
:103380000302DA60DA6822F0887222F48032DA60AE
:10339000FFF7E8FD04464E4B1B6813F0007F4ED04C
:1033A000FFF7E0FD001B0228F5D9032080E0484A22
:1033B000136823F080731360FFF7D4FD0546444B78
:1033C0001B6813F0007F06D0FFF7CCFD401B0228DE
:1033D000F5D903206CE03E4AD3683E491940236A80
:1033E000606A013843EA0013A06A43EA0023206BB5
:1033F0004008013843EA4053606B4008013843EA13
:103400004063E06A43EAC0630B43D360136843F050
:1034100080731360D36843F08073D360FFF7A2FD1D
:1034200004462B4B1B6813F0007F06D1FFF79AFD73
:10343000001B0228F5D903203AE0002038E00020E4
:1034400036E0012B36D0224BDB6803F00301226A01
:10345000914231D103F0F002616A0139B2EB011FF0
:103460002CD103F4FE42A16AB2EB012F28D103F064
:103470007842E16AB2EBC16F24D103F4C001226B40
:103480005208013AB1EB425F1ED103F0C063626B98
:103490005208013AB3EB426F18D1002008E0012036
:1034A0007047012004E0012002E0012000E000203C
:1034B00002B070BD0120FBE70120F9E70120F7E72A
:1034C0000120F5E70120F3E70120F1E70120EFE714
:1034D000001002400C809F011E4B9B6803F00C0300
:1034E000042B33D01B4B9B6803F00C03082B2FD00D
:1034F000184B9B6803F00C030C2B01D00020704785
:10350000144BDA6802F00302D868C0F30310431CBE
:10351000032A11D01048B0FBF3F00E4BDB68C3F365
:10352000062303FB00F00B4BDB68C3F3416301335D
:103530005B00B0FBF3F070470848B0FBF3F0054BBD
:10354000DB68C3F3062303FB00F0ECE70248704797
:1035500002487047001002400024F40040787D01CA
:10356000002800F0E680F8B50C460546744B1B6851
:1035700003F00F038B420BD2714A136823F00F0341
:103580000B431360136803F00F038B4240F0D380AA
:103590002E6816F001065FD06B68032B2FD0022B2C
:1035A0004DD0684B1B6813F4806F00F0C680FFF7A6
:1035B00093FF654B98424DD9624A936823F0F0031C
:1035C00043F08003936080265E4A936823F00303F0
:1035D00069680B439360FFF7C5FC0746594B9B682E
:1035E00003F00C036A68B3EB820F35D0FFF7BAFC27
:1035F000C01B41F288339842F0D9032078E0514B48
:103600001B6813F0007F01D1012071E0FFF7C4FCBB
:103610004D4B98421AD94B4B9B6813F0F00F05D0D5
:103620002E6816F00206CFD0AB688BB9454A936876
:1036300023F0F00343F0800393608026C4E7414BFE
:103640001B6813F4003FB2D1012051E00026BBE714
:103650000026B9E70026B7E72B6813F0020F48D021
:1036600013F0040F04D0374A936843F4E063936087
:103670002B6813F0080F06D0324A936823F47C536A
:1036800043F4E06393602F4A936823F0F003A96842
:103690000B4393602A4B1B6803F00F03A34230D8FF
:1036A0002B6813F0040F06D0264A936823F4E063D6
:1036B000E9680B4393602B6813F0080F07D0214A89
:1036C000936823F46053296943EAC1039360FFF7C9
:1036D00003FF1C4B9B68C3F303131C4AD35C03F02A
:1036E0001F03D8401A4B18601A4B1868FFF7F6FBF7
:1036F000F8BD802ECED1134A936823F0F003936077
:10370000C8E70F4A136823F00F0323431360FFF742
:1037100029FC06460A4B1B6803F00F03A342BFD0E7
:10372000FFF720FC801B41F288339842F2D9032036
:10373000DEE7012070470120DAE70120D8E700BF6B
:10374000002002400010024000B4C404D43F00082E
:103750006C00002068000020014B1868704700BF13
:103760006C00002008B5FFF7F7FF054B9B68C3F31B
:103770000223044AD35C03F01F03D84008BD00BFF6
:1037800000100240E43F000808B5FFF7E5FF054BD5
:103790009B68C3F3C223044AD35C03F01F03D840E1
:1037A00008BD00BF00100240E43F0008F0B583B040
:1037B0000446036813F4002F6ED0354B9B6D13F055
:1037C000805F1ED1324B9A6D42F080529A659B6D9C
:1037D00003F080530193019B01262E4A136843F4A2
:1037E00080731360FFF7BEFB05462A4B1B6813F47A
:1037F000807F08D1FFF7B6FB401B0228F5D90325CF
:1038000002E00026E9E7002545BB214BD3F89030C4
:1038100013F4407315D0226D9A4212D01C4AD2F88C
:10382000903023F44073D2F8901041F48031C2F804
:103830009010D2F8901021F48031C2F89010C2F8A4
:10384000903013F0010F10D145B9114AD2F89030E1
:1038500023F44073216D0B43C2F89030EEB10C4A53
:10386000936D23F08053936517E0FFF77BFB0746CA
:10387000074BD3F8903013F0020FE5D1FFF772FB3E
:10388000C01B41F288339842F2D90325DCE700BF20
:1038900000100240007000400025236813F0010F63
:1038A00008D09F4AD2F8883023F0030361680B43A5
:1038B000C2F88830236813F0020F08D0984AD2F873
:1038C000883023F00C03A1680B43C2F888302368CA
:1038D00013F0040F08D0924AD2F8883023F0300356
:1038E000E1680B43C2F88830236813F0080F08D052
:1038F0008B4AD2F8883023F0C00321690B43C2F809
:103900008830236813F0100F08D0854AD2F8883029
:1039100023F4407361690B43C2F88830236813F0C5
:10392000200F08D07E4AD2F8883023F44063A16982
:103930000B43C2F88830236813F0400F08D0784A50
:10394000D2F8883023F44053E1690B43C2F8883041
:10395000236813F0800F08D0714AD2F8883023F41E
:103960004043216A0B43C2F88830236813F4807FF8
:1039700008D06B4AD2F8883023F44033616A0B4395
:10398000C2F88830236813F4003F08D0644AD2F8A4
:103990009C3023F00303A16A0B43C2F89C302368D8
:1039A00013F4007F08D05E4AD2F8883023F4402315
:1039B000E16A0B43C2F88830236813F4806F0CD09F
:1039C000574AD2F8883023F44013216B0B43C2F8D6
:1039D0008830236BB3F5801F79D0236813F4006F10
:1039E0000CD04F4AD2F8883023F44003616B0B436C
:1039F000C2F88830636BB3F5800F6DD0236813F481
:103A0000805F0CD0464AD2F8883023F04073A16B17
:103A10000B43C2F88830A36BB3F1807F61D0236879
:103A200013F4005F0CD03E4AD2F8883023F0406394
:103A3000E16B0B43C2F88830E36BB3F1006F55D0F4
:103A4000236813F4804F0CD0354AD2F8883023F025
:103A50004063216C0B43C2F88830236CB3F1006FD4
:103A600049D0236813F4004F0CD02D4AD2F8883087
:103A700023F04053616C0B43C2F88830636CB3F1A0
:103A8000805F3DD0236813F4803F0CD0244AD2F8E5
:103A9000883023F04043A16C0B43C2F88830A36CFC
:103AA000B3F1804F31D0236813F4802F0CD01C4A1F
:103AB000D2F89C3023F44013E16C0B43C2F89C30E5
:103AC000E36CB3F5001F25D0284603B0F0BDD368E2
:103AD00043F48013D36080E7D36843F48013D3604A
:103AE0008CE7D36843F48013D36098E7D36843F43A
:103AF0008013D360A4E7D36843F48013D360B0E7A6
:103B0000D36843F48033D360BCE7D36843F4803395
:103B1000D360C8E7D36843F48013D360D4E700BF11
:103B200000100240F0B583B0002362E085685E00BB
:103B30000324B44025EA0405CC68B4402C438460D7
:103B4000446824EA0C0C4C68C4F300149C4044EA1A
:103B50000C0444605EE0DD08083550F8256003F091
:103B600007044FEA840C0F2404FA0CF426EA040E2E
:103B70000C6904FA0CF444EA0E0440F8254060E0B5
:103B8000052400E0002404FA0EF42C430CF1020C8E
:103B9000554D45F82C40554CA568D44325EA0206FE
:103BA0004F6817F4801F01D042EA05064F4DAE6002
:103BB000ED6804EA05064F6817F4001F01D042EAD9
:103BC00005064A4DEE606D6804EA05064F6817F475
:103BD000003F01D042EA0506444D6E602D682C403E
:103BE0004E6816F4803F01D042EA05043F4A146053
:103BF00001330A6832FA03F474D04FF0010C0CFA66
:103C000003FC1CEA0202F3D04C6804F00304013CFC
:103C1000012C8BD94C6804F00304032C0CD0C4682D
:103C20005D004FF0030C0CFA05FC24EA0C0C8C68C8
:103C3000AC4044EA0C04C4604C6804F00304022C59
:103C400089D004684FEA430E4FF0030C0CFA0EFCC7
:103C500024EA0C0C4C6804F0030404FA0EF444EA61
:103C60000C0404604C6814F4403FC1D0204C256E15
:103C700045F001052566246E04F001040194019CC1
:103C80004FEA930C0CF10205174C54F8255003F041
:103C900003044FEA840E0F2404FA0EF425EA040507
:103CA000B0F1904F3FF46EAF124CA04212D004F529
:103CB0008064A04210D004F58064A0420ED004F5C8
:103CC0008064A0420CD004F58064A0423FF458AF59
:103CD000062458E7012456E7022454E7032452E758
:103CE000042450E703B0F0BD00000140000401408F
:103CF0000010024000040048034690F82520D2B28C
:103D0000022A09D00422C2630120012283F825205F
:103D1000002283F82420704701680A6822F00E020E
:103D20000A60816C0A6822F480720A6001680A687D
:103D300022F001020A60426C02F01F01006C0122B5
:103D40008A404260DA6C196D51605A6D42B1116857
:103D500021F4807111609A6DD96D51600020D4E713
:103D60000020D2E708B590F82530DBB2022B09D04D
:103D70000423C363012380F82530002280F8242027
:103D8000184608BD0268136823F00E03136002682A
:103D9000136823F001031360826C136823F48073AB
:103DA0001360436C03F01F02016C012393404B60CE
:103DB000C36C026D5A60436D33B11A6822F480728D
:103DC0001A60836DC26D5A60012380F8253000238C
:103DD00080F82430836B13B198470020D1E700208E
:103DE000CFE70000074AD36823F4E0631B041B0CF1
:103DF000000200F4E060034343F0BF6343F4003388
:103E0000D360704700ED00E000B5194BDB68C3F3E9
:103E10000223C3F1070CBCF1040F28BF4FF0040CC0
:103E200003F1040EBEF1060F18D9033B4FF0FF3E1D
:103E30000EFA0CFC21EA0C0199400EFA03F322EA77
:103E40000303194300280BDB0901C9B200F16040EC
:103E500000F5614080F800135DF804FB0023E5E7FE
:103E600000F00F000901C9B2024B1954F4E700BF7A
:103E700000ED00E014ED00E0002807DB00F01F0279
:103E8000400901239340024A42F82030704700BFA6
:103E900000E100E00138B0F1807F0BD24FF0E02369
:103EA0005861054AF02182F823100020986107220A
:103EB0001A6170470120704700ED00E0034AD2F814
:103EC000883043F47003C2F88830704700ED00E09A
:103ED0000D4885460D480E490E4A002302E0D4588D
:103EE000C4500433C4188C42F9D30B4A0B4C002342
:103EF00001E013600432A242FBD3FFF7DFFFFCF7BF
:103F0000B3F9FEF797F8FEE700000220000000205A
:103F1000700000203840000870000020C001002020
:103F2000FEE70000F8B500BFF8BC08BC9E4670472D
:0C3F3000F8B500BFF8BC08BC9E46704706
:103F3C000400002000000000000000000000000051
:103F4C000000000000000000000000000000000065
:103F5C000000000000000000000000000000000055
:103F6C000000000000000000000000000000000045
:103F7C000000000000000000000000000000000035
:103F8C000000000000000000000000000000000025
:103F9C000000000041540D002041540D0A000000A7
:103FAC00010002000400060008000A000C001000CA
:103FBC0020004000800000010804020408010101F7
:103FCC0001010103070100000000000000000000D7
:103FDC0001020304060708090000000001020304A3
:103FEC00232D302B20000000686C4C006566674563
:103FFC004647000030313233343536373839414298
:10400C0043444546000000003031323334353637F6
:0C401C00383961626364656600000000D2
:0840280058DBFF7F01000000DE
:044030004902000839
:04403400210200085D
:104038000400002000000000803F0008603F0008E6
:10404800403F0008000000000000000000000000E1
:104058000000000000000000000000000000000058
:104068000000000000000000000000000000000048
:104078000000000000000000000000000000000038
:104088000000000000000000000000000000000028
:104098000000000001000000100000000024F400EF
:0400000508003ED1E0
:00000001FF
